{
  "transactions": [
    {
      "hash": "0x24b6d124afc2724fb0cae66313290d911ffb50c770541a7cd10c72331dfd6199",
      "transactionType": "CALL",
      "contractName": null,
      "contractAddress": "0x8b15ca3e809afae4039af05f6d7eb117e056c5be",
      "function": "createAccount(address,uint256)",
      "arguments": [
        "0xBda3d79Ed63349516132e8caE8E2f767bC5aE5BC",
        "0"
      ],
      "transaction": {
        "from": "0xbda3d79ed63349516132e8cae8e2f767bc5ae5bc",
        "to": "0x8b15ca3e809afae4039af05f6d7eb117e056c5be",
        "gas": "0x2df3d",
        "value": "0x0",
        "input": "0x5fbfb9cf000000000000000000000000bda3d79ed63349516132e8cae8e2f767bc5ae5bc0000000000000000000000000000000000000000000000000000000000000000",
        "nonce": "0x4",
        "chainId": "0xaa36a7"
      },
      "additionalContracts": [
        {
          "transactionType": "CREATE2",
          "address": "0xee3e49ef57c871036b8aa19b6576429ae3ea1b44",
          "initCode": "0x60806040526102a2803803806100148161016e565b9283398101604082820312610156578151916001600160a01b03831690818403610156576020810151906001600160401b038211610156570182601f82011215610156578051906001600160401b03821161015a5761007c601f8301601f191660200161016e565b938285526020838301011161015657815f9260208093018387015e8401015281511561014757823b15610135577f360894a13ba1a3210667c828492db98dca3e2076cc3735a920a3ca505d382bbc80546001600160a01b031916821790557fbc7cd75a20ee27fd9adebab32041f755214dbc6bffa90cc0225b39da2e5c2d3b5f80a280511561011e5761010e91610193565b505b604051608290816102208239f35b505034156101105763b398979f60e01b5f5260045ffd5b634c9c8ce360e01b5f5260045260245ffd5b6330a289cf60e21b5f5260045ffd5b5f80fd5b634e487b7160e01b5f52604160045260245ffd5b6040519190601f01601f191682016001600160401b0381118382101761015a57604052565b905f8091602081519101845af4808061020c575b156101c75750506040513d81523d5f602083013e60203d82010160405290565b156101ec57639996b31560e01b5f9081526001600160a01b0391909116600452602490fd5b3d156101fd576040513d5f823e3d90fd5b63d6bda27560e01b5f5260045ffd5b503d1515806101a75750813b15156101a756fe60806040527f360894a13ba1a3210667c828492db98dca3e2076cc3735a920a3ca505d382bbc545f9081906001600160a01b0316368280378136915af43d5f803e156048573d5ff35b3d5ffdfea2646970667358221220031edf9d3382df5037a22a569a5b4e4342a4143d92203851ba2d6c235046478b64736f6c634300081e00330000000000000000000000009035e4b24bf28855acf04e806d9cfa200c8ea29c00000000000000000000000000000000000000000000000000000000000000400000000000000000000000000000000000000000000000000000000000000024c4d66de8000000000000000000000000bda3d79ed63349516132e8cae8e2f767bc5ae5bc00000000000000000000000000000000000000000000000000000000"
        }
      ],
      "isFixedGasLimit": false
    },
    {
      "hash": "0x99e8945e12f41468e2aa70036153fcc92f056e04ea25e9b2b2d7830a287e10fe",
      "transactionType": "CALL",
      "contractName": null,
      "contractAddress": "0x759f62a65f5a2deb8afe344504200156ffaa6528",
      "function": "mint(address,uint256)",
      "arguments": [
        "0xee3E49ef57c871036B8Aa19B6576429ae3EA1B44",
        "50000000"
      ],
      "transaction": {
        "from": "0xbda3d79ed63349516132e8cae8e2f767bc5ae5bc",
        "to": "0x759f62a65f5a2deb8afe344504200156ffaa6528",
        "gas": "0x11305",
        "value": "0x0",
        "input": "0x40c10f19000000000000000000000000ee3e49ef57c871036b8aa19b6576429ae3ea1b440000000000000000000000000000000000000000000000000000000002faf080",
        "nonce": "0x5",
        "chainId": "0xaa36a7"
      },
      "additionalContracts": [],
      "isFixedGasLimit": false
    },
    {
      "hash": "0x58af14d2c19f416fa7136cdfffd1ed365c639208c12aa4844d117b5f5653b714",
      "transactionType": "CALL",
      "contractName": "EntryPoint",
      "contractAddress": "0x0000000071727de22e5e9d8baf0edac6f37da032",
      "function": "depositTo(address)",
      "arguments": [
        "0xB12C53F7Ab00897Cb8990afbEFb239A418aBea4d"
      ],
      "transaction": {
        "from": "0xbda3d79ed63349516132e8cae8e2f767bc5ae5bc",
        "to": "0x0000000071727de22e5e9d8baf0edac6f37da032",
        "gas": "0x99b3",
        "value": "0x2c68af0bb140000",
        "input": "0xb760faf9000000000000000000000000b12c53f7ab00897cb8990afbefb239a418abea4d",
        "nonce": "0x6",
        "chainId": "0xaa36a7"
      },
      "additionalContracts": [],
      "isFixedGasLimit": false
    },
    {
      "hash": "0xb40278b407c07e6ab018b0f88f6663863c8d6f7bcc41cccef13c4446e068e944",
      "transactionType": "CALL",
      "contractName": "EntryPoint",
      "contractAddress": "0x0000000071727de22e5e9d8baf0edac6f37da032",
      "function": "handleOps((address,uint256,bytes,bytes,bytes32,uint256,bytes32,bytes,bytes)[],address)",
      "arguments": [
        "[(0xee3E49ef57c871036B8Aa19B6576429ae3EA1B44, 0, 0x, 0xb61d27f6000000000000000000000000759f62a65f5a2deb8afe344504200156ffaa6528000000000000000000000000000000000000000000000000000000000000000000000000000000000000000000000000000000000000000000000000000000600000000000000000000000000000000000000000000000000000000000000044a9059cbb000000000000000000000000c1c515e4d4893aa981176f053478833d6045e321000000000000000000000000000000000000000000000000000000000098968000000000000000000000000000000000000000000000000000000000, 0x00000000000000000000000000030d4000000000000000000000000000030d40, 100000, 0x000000000000000000000000b2d05e00000000000000000000000000b2d05e00, 0xb12c53f7ab00897cb8990afbefb239a418abea4d00000000000000000000000000030d40000000000000000000000000000186a0, 0x472a9350b5358de94688f96cd24751c7572769f320d1fc3d569e3f33e023ba804513ad27f110dc992ebf67aefec6c6f36afb085a8584ff30113fd1bf8cb906321c)]",
        "0x53576212a5d281a83057cE5211696e1477bb834e"
      ],
      "transaction": {
        "from": "0x53576212a5d281a83057ce5211696e1477bb834e",
        "to": "0x0000000071727de22e5e9d8baf0edac6f37da032",
        "gas": "0x989680",
        "value": "0x0",
        "input": "0x765e827f000000000000000000000000000000000000000000000000000000000000004000000000000000000000000053576212a5d281a83057ce5211696e1477bb834e00000000000000000000000000000000000000000000000000000000000000010000000000000000000000000000000000000000000000000000000000000020000000000000000000000000ee3e49ef57c871036b8aa19b6576429ae3ea1b4400000000000000000000000000000000000000000000000000000000000000000000000000000000000000000000000000000000000000000000000000000120000000000000000000000000000000000000000000000000000000000000014000000000000000000000000000030d4000000000000000000000000000030d4000000000000000000000000000000000000000000000000000000000000186a0000000000000000000000000b2d05e00000000000000000000000000b2d05e00000000000000000000000000000000000000000000000000000000000000026000000000000000000000000000000000000000000000000000000000000002c0000000000000000000000000000000000000000000000000000000000000000000000000000000000000000000000000000000000000000000000000000000e4b61d27f6000000000000000000000000759f62a65f5a2deb8afe344504200156ffaa6528000000000000000000000000000000000000000000000000000000000000000000000000000000000000000000000000000000000000000000000000000000600000000000000000000000000000000000000000000000000000000000000044a9059cbb000000000000000000000000c1c515e4d4893aa981176f053478833d6045e321000000000000000000000000000000000000000000000000000000000098968000000000000000000000000000000000000000000000000000000000000000000000000000000000000000000000000000000000000000000000000000000000000000000000000000000000000000000000000000000034b12c53f7ab00897cb8990afbefb239a418abea4d00000000000000000000000000030d40000000000000000000000000000186a00000000000000000000000000000000000000000000000000000000000000000000000000000000000000041472a9350b5358de94688f96cd24751c7572769f320d1fc3d569e3f33e023ba804513ad27f110dc992ebf67aefec6c6f36afb085a8584ff30113fd1bf8cb906321c00000000000000000000000000000000000000000000000000000000000000",
        "nonce": "0xf",
        "chainId": "0xaa36a7"
      },
      "additionalContracts": [],
      "isFixedGasLimit": true
    }
  ],
  "receipts": [
    {
      "status": "0x1",
      "cumulativeGasUsed": "0x188c1fc",
      "logs": [
        {
          "address": "0xee3e49ef57c871036b8aa19b6576429ae3ea1b44",
          "topics": [
            "0xbc7cd75a20ee27fd9adebab32041f755214dbc6bffa90cc0225b39da2e5c2d3b",
            "0x0000000000000000000000009035e4b24bf28855acf04e806d9cfa200c8ea29c"
          ],
          "data": "0x",
          "blockHash": "0xbb620e98c4065882fda2b72cbca35a9df17e56901e4cd332afb9975eb10da498",
          "blockNumber": "0xa9db52",
          "blockTimestamp": "0x6a3c296c",
          "transactionHash": "0x24b6d124afc2724fb0cae66313290d911ffb50c770541a7cd10c72331dfd6199",
          "transactionIndex": "0xc7",
          "logIndex": "0x35b",
          "removed": false
        },
        {
          "address": "0xee3e49ef57c871036b8aa19b6576429ae3ea1b44",
          "topics": [
            "0x8be0079c531659141344cd1fd0a4f28419497f9722a3daafe3b4186f6b6457e0",
            "0x0000000000000000000000000000000000000000000000000000000000000000",
            "0x000000000000000000000000bda3d79ed63349516132e8cae8e2f767bc5ae5bc"
          ],
          "data": "0x",
          "blockHash": "0xbb620e98c4065882fda2b72cbca35a9df17e56901e4cd332afb9975eb10da498",
          "blockNumber": "0xa9db52",
          "blockTimestamp": "0x6a3c296c",
          "transactionHash": "0x24b6d124afc2724fb0cae66313290d911ffb50c770541a7cd10c72331dfd6199",
          "transactionIndex": "0xc7",
          "logIndex": "0x35c",
          "removed": false
        }
      ],
      "logsBloom": "0x00000000000000000008000040000400400000000000000000800000000000000000000000000000000000000000000000000000100000000000000000000000000000000000000000000000000002000001000000000000000000000000000000000000028000000000000000000800000000000000000000000000000000400000000000000000000000000000000000000004000000000000000000000000000000000000000000000000000000000000000000000080000000000000000000000020000000000000000000000000000000010000000000000000000020400000000000000000000000000000000000000000000000000000000000000000",
      "type": "0x2",
      "transactionHash": "0x24b6d124afc2724fb0cae66313290d911ffb50c770541a7cd10c72331dfd6199",
      "transactionIndex": "0xc7",
      "blockHash": "0xbb620e98c4065882fda2b72cbca35a9df17e56901e4cd332afb9975eb10da498",
      "blockNumber": "0xa9db52",
      "gasUsed": "0x2144e",
      "effectiveGasPrice": "0x40bdb35b",
      "from": "0xbda3d79ed63349516132e8cae8e2f767bc5ae5bc",
      "to": "0x8b15ca3e809afae4039af05f6d7eb117e056c5be",
      "contractAddress": null
    },
    {
      "status": "0x1",
      "cumulativeGasUsed": "0x22a4c7e",
      "logs": [
        {
          "address": "0x759f62a65f5a2deb8afe344504200156ffaa6528",
          "topics": [
            "0xddf252ad1be2c89b69c2b068fc378daa952ba7f163c4a11628f55a4df523b3ef",
            "0x0000000000000000000000000000000000000000000000000000000000000000",
            "0x000000000000000000000000ee3e49ef57c871036b8aa19b6576429ae3ea1b44"
          ],
          "data": "0x0000000000000000000000000000000000000000000000000000000002faf080",
          "blockHash": "0xb306f696dee1820fb2b1bea4232bc57901ff00f99af5c4bce44e9d6f3b11e314",
          "blockNumber": "0xa9db53",
          "blockTimestamp": "0x6a3c2984",
          "transactionHash": "0x99e8945e12f41468e2aa70036153fcc92f056e04ea25e9b2b2d7830a287e10fe",
          "transactionIndex": "0xed",
          "logIndex": "0x668",
          "removed": false
        }
      ],
      "logsBloom": "0x00000000000000000000000000000000000000000000000000000000000000000000000000000000000000000000000000000000000000000000000000000000000000000000004000000008000000000000000010000008000000000000000000000000020000000000000000000800000200000000000000000010000000000000000000000000000000000000000000000000000000000000000000000000000000000000000000000000000000000000000000000000000000000200000000000002000000000000100000000000000000000000000000000000000020000000000000000000000000000000000000000000000000000000000000000000",
      "type": "0x2",
      "transactionHash": "0x99e8945e12f41468e2aa70036153fcc92f056e04ea25e9b2b2d7830a287e10fe",
      "transactionIndex": "0xed",
      "blockHash": "0xb306f696dee1820fb2b1bea4232bc57901ff00f99af5c4bce44e9d6f3b11e314",
      "blockNumber": "0xa9db53",
      "gasUsed": "0xc71d",
      "effectiveGasPrice": "0x3fe9a007",
      "from": "0xbda3d79ed63349516132e8cae8e2f767bc5ae5bc",
      "to": "0x759f62a65f5a2deb8afe344504200156ffaa6528",
      "contractAddress": null
    },
    {
      "status": "0x1",
      "cumulativeGasUsed": "0x189aaa7",
      "logs": [
        {
          "address": "0x0000000071727de22e5e9d8baf0edac6f37da032",
          "topics": [
            "0x2da466a7b24304f47e87fa2e1e5a81b9831ce54fec19055ce277ca2f39ba42c4",
            "0x000000000000000000000000b12c53f7ab00897cb8990afbefb239a418abea4d"
          ],
          "data": "0x00000000000000000000000000000000000000000000000009b6e64a8ec60000",
          "blockHash": "0xb1929475609107c97ad4b1fe29b9aec32afa6178321286a81bdc8457233067e6",
          "blockNumber": "0xa9db54",
          "blockTimestamp": "0x6a3c2990",
          "transactionHash": "0x58af14d2c19f416fa7136cdfffd1ed365c639208c12aa4844d117b5f5653b714",
          "transactionIndex": "0xae",
          "logIndex": "0x307",
          "removed": false
        }
      ],
      "logsBloom": "0x00000000000000000000000000000000000000000000000000000000000000000020000000000000000002000000000000000000000000000000000000000000000000000000000000000000000000000040000000000000000000000000200000000000000800000000000000000000000400000000000000000000000200000000000000000000000000000000000000000000000000000000000000000000000000000000000000000000000000000000000000000000000000000000000000000000000000400000000000000000000000000000000000000000000000000040000000000000000000000000000000000000000000000000000000000000",
      "type": "0x2",
      "transactionHash": "0x58af14d2c19f416fa7136cdfffd1ed365c639208c12aa4844d117b5f5653b714",
      "transactionIndex": "0xae",
      "blockHash": "0xb1929475609107c97ad4b1fe29b9aec32afa6178321286a81bdc8457233067e6",
      "blockNumber": "0xa9db54",
      "gasUsed": "0x6f47",
      "effectiveGasPrice": "0x44430426",
      "from": "0xbda3d79ed63349516132e8cae8e2f767bc5ae5bc",
      "to": "0x0000000071727de22e5e9d8baf0edac6f37da032",
      "contractAddress": null
    },
    {
      "status": "0x1",
      "cumulativeGasUsed": "0x14070b0",
      "logs": [
        {
          "address": "0x0000000071727de22e5e9d8baf0edac6f37da032",
          "topics": [
            "0xbb47ee3e183a558b1a2ff0874b079f3fc5478b7454eacf2bfc5af2ff5878f972"
          ],
          "data": "0x",
          "blockHash": "0x662e0ae510b8abf082107b983d2f4724e642e591b818df1eb51e0a8f89fe2941",
          "blockNumber": "0xa9db55",
          "blockTimestamp": "0x6a3c299c",
          "transactionHash": "0xb40278b407c07e6ab018b0f88f6663863c8d6f7bcc41cccef13c4446e068e944",
          "transactionIndex": "0x91",
          "logIndex": "0x30a",
          "removed": false
        },
        {
          "address": "0x759f62a65f5a2deb8afe344504200156ffaa6528",
          "topics": [
            "0xddf252ad1be2c89b69c2b068fc378daa952ba7f163c4a11628f55a4df523b3ef",
            "0x000000000000000000000000ee3e49ef57c871036b8aa19b6576429ae3ea1b44",
            "0x000000000000000000000000c1c515e4d4893aa981176f053478833d6045e321"
          ],
          "data": "0x0000000000000000000000000000000000000000000000000000000000989680",
          "blockHash": "0x662e0ae510b8abf082107b983d2f4724e642e591b818df1eb51e0a8f89fe2941",
          "blockNumber": "0xa9db55",
          "blockTimestamp": "0x6a3c299c",
          "transactionHash": "0xb40278b407c07e6ab018b0f88f6663863c8d6f7bcc41cccef13c4446e068e944",
          "transactionIndex": "0x91",
          "logIndex": "0x30b",
          "removed": false
        },
        {
          "address": "0x0000000071727de22e5e9d8baf0edac6f37da032",
          "topics": [
            "0x49628fd1471006c1482da88028e9ce4dbb080b815c9b0344d39e5a8e6ec1419f",
            "0x45d531ba77ebb5e0f174bb087b108f15e8293165f986b60591985a0a78366a95",
            "0x000000000000000000000000ee3e49ef57c871036b8aa19b6576429ae3ea1b44",
            "0x000000000000000000000000b12c53f7ab00897cb8990afbefb239a418abea4d"
          ],
          "data": "0x00000000000000000000000000000000000000000000000000000000000000000000000000000000000000000000000000000000000000000000000000000001000000000000000000000000000000000000000000000000000241b24cafe0000000000000000000000000000000000000000000000000000000000000033b10",
          "blockHash": "0x662e0ae510b8abf082107b983d2f4724e642e591b818df1eb51e0a8f89fe2941",
          "blockNumber": "0xa9db55",
          "blockTimestamp": "0x6a3c299c",
          "transactionHash": "0xb40278b407c07e6ab018b0f88f6663863c8d6f7bcc41cccef13c4446e068e944",
          "transactionIndex": "0x91",
          "logIndex": "0x30c",
          "removed": false
        }
      ],
      "logsBloom": "0x00000000000000000000000000000000000000000000000000000000000000000028000000000000000002010000000000000000000000000000020000000000000000000000004000000008000000000040000010000008000000000000000000000000000800000000000000000000000600000000000000000010000000000000100000000400400000000000000000000000000000000000080000000000000000000000000000400000000000000000000000000000000002000600000000000002000000400001100000000000000000000000000000000000080000000000000000000000000000000000000000000000000000000000000000000000",
      "type": "0x2",
      "transactionHash": "0xb40278b407c07e6ab018b0f88f6663863c8d6f7bcc41cccef13c4446e068e944",
      "transactionIndex": "0x91",
      "blockHash": "0x662e0ae510b8abf082107b983d2f4724e642e591b818df1eb51e0a8f89fe2941",
      "blockNumber": "0xa9db55",
      "gasUsed": "0x201c1",
      "effectiveGasPrice": "0x43b1a7d6",
      "from": "0x53576212a5d281a83057ce5211696e1477bb834e",
      "to": "0x0000000071727de22e5e9d8baf0edac6f37da032",
      "contractAddress": null
    }
  ],
  "libraries": [],
  "pending": [],
  "returns": {},
  "timestamp": 1782327710,
  "chain": 11155111,
  "commit": null
}